:020000040800F2
:10000000A067002031020008CD3B0008A13A00089B
:10001000C93B0008E1060008493E00080000000056
:100020000000000000000000000000002D3E00085D
:10003000E506000800000000D13B0008313E000842
:100040004B0200084B0200084B0200084B0200085C
:100050004B0200084B0200084B0200084B0200084C
:100060004B0200084B0200084B0200084B0200083C
:100070004B0200084B0200084B0200084B0200082C
:100080004B0200084B0200084B0200084B0200081C
:100090004B0200084B0200084B0200084B0200080C
:1000A0004B0200084B0200084B0200084B020008FC
:1000B0004B0200084B0200084B0200084B020008EC
:1000C0004B0200084B0200084B0200084B020008DC
:1000D0004B0200084B0200084B0200084B020008CC
:1000E0004B0200084B0200084B0200084B020008BC
:1000F0004B0200084B0200084B0200084B020008AC
:100100000000000000000000000000004B0200089A
:100110004B0200084B0200084B0200084B0200088B
:100120004B0200084B0200084B0200084B0200087B
:100130004B0200084B020008000000000000000015
:100140004B0200084B0200084B02000800000000B0
:10015000000000000000000000000000000000009F
:1001600000000000000000004B0200084B020008E5
:100170004B0200080000000000000000000000002A
:10018000000000004B02000800F002F800F040F808
:100190000AA090E8000C82448344AAF10107DA45E2
:1001A00001D100F035F8AFF2090EBAE80F0013F0F4
:1001B000010F18BFFB1A43F0010318470C49000058
:1001C0002C490000103A24BF78C878C1FAD85207E9
:1001D00024BF30C830C144BF04680C6070470000C1
:1001E0000023002400250026103A28BF78C1FBD840
:1001F000520728BF30C148BF0B6070471FB504F0DD
:10020000C1FB9DE8030000F029F91FBD10B510BD2A
:1002100000F0E4F91146FFF7F1FF03F017FE00F0DC
:1002200002FA03B4FFF7F2FF03BC00F033FA000058
:100230000948804709480047FEE7FEE7FEE7FEE77A
:10024000FEE7FEE7FEE7FEE7FEE7FEE704480549B6
:10025000054A064B70470000353E0008890100083A
:1002600070310020A06700207056002070560020DA
:1002700070B5A0FB0140B4F1805170F1000024BFC3
:10028000002070BD204600F007F805001CBF214685
:1002900000F057F9284670BD70B5064600F0C2F868
:1002A000056806F10B0020F00704B4429CBF002053
:1002B00070BD2B466A68BAB11068A04210D304F131
:1002C000080188423CBF5068586007D35168101934
:1002D00041601168091B016058601460101D70BDF9
:1002E00013465268002AE7D12146284600F0A2F8BA
:1002F0000028DED170BD70B50446051F00F092F8ED
:100300000068002C14BF446870BD002C18BFAC42BC
:100310003CBF20466468F8D301680A18AA4218BF97
:10032000456003D12A6805461144016028684119D7
:10033000A1421CBF6C6070BD61686960216808449F
:10034000286070BD032A40F2308010F0030C00F0EA
:10035000158011F8013BBCF1020F624498BF11F8FF
:1003600001CB00F8013B38BF11F8013BA2F10402B8
:1003700098BF00F801CB38BF00F8013B11F0030330
:1003800000F0AD80083AC0F0088051F8043B083A0C
:1003900051F804CBA0E80810F5E7121D5CBF51F836
:1003A000043B40F8043BAFF30080D20724BF11F8B0
:1003B000013B11F801CB48BF11F8012B24BF00F815
:1003C000013B00F801CB48BF00F8012B70474FF00C
:1003D000000200B5134694469646203922BFA0E895
:1003E0000C50A0E80C50B1F12001BFF4F7AF0907A1
:1003F00028BFA0E80C5048BF0CC05DF804EB890092
:1004000028BF40F8042B08BF704748BF20F8022BD4
:1004100011F0804F18BF00F8012B704770477047EC
:100420007047000000487047180000207047704770
:100430007047704738B504460A4600206946AFF356
:100440000080002808BF38BD02460099204600F011
:10045000A3F8012038BD012000F0B8B8F8B5AFF31B
:100460000080054600200C46102000BF0646A81953
:10047000A0420DD9324669460020AFF30080070044
:1004800008BF00F0A3F80098A04218BF0546C419A1
:10049000FFF7C8FF05600746F01D20F0070046196A
:1004A000284600F00AF8B44208BFF8BDA21B314646
:1004B0003868BDE8F84000F06FB800210160C0E97D
:1004C000011070471020704710B500F061F8006807
:1004D00010BD10B5044600F05BF8046010BD10B507
:1004E000203AC0F00B80B1E81850A0E81850B1E8ED
:1004F0001850A0E81850203ABFF4F5AF5FEA027C2C
:1005000024BFB1E81850A0E8185044BF18C918C05B
:10051000BDE810405FEA827C24BF51F8043B40F8FC
:10052000043B08BF7047D20728BF31F8023B48BFE1
:1005300011F8012B28BF20F8023B48BF00F8012B1F
:1005400070474FF000020429C0F0128010F0030C35
:100550003FF43FAFCCF1040CBCF1020F18BF00F820
:10056000012BA8BF20F8022BA1EB0C01FFF731BF34
:100570005FEAC17C24BF00F8012B00F8012B48BFC3
:1005800000F8012B70470000004870471000002061
:100590000048704710000020034640688C46002841
:1005A00018BF88423CBF03464068F8D31868184417
:1005B000884207D00CF1030020F00700001D411A0B
:1005C000521A0146081D0A60FFF795BE10B500F0EB
:1005D00039F8BDE8104000F02FB870477546FFF7B6
:1005E000D3FFAE4605006946534620F00700854616
:1005F00018B020B5FFF72AFEBDE820404FF00006F6
:100600004FF000074FF000084FF0000BAC46ACE88D
:10061000C009ACE8C009ACE8C009ACE8C00921F0E9
:1006200007018D46704710B50446AFF300802046A1
:10063000BDE81040FFF7F5BD002801D000F02AB852
:100640007047000010B5012805D0002103A000F07C
:1006500027F8012010BD09A1F8E7000053494752CF
:10066000544D454D3A204F7574206F662068656182
:1006700070206D656D6F7279000000003A2048654A
:100680006170206D656D6F727920636F7272757025
:100690007465640001491820ABBEFEE72600020025
:1006A00070B505460C460A2000E06D1C00F011F8FC
:1006B00035B128780028F8D102E0641C00F009F870
:1006C00014B120780028F8D1BDE870400A20AFF3BB
:1006D000008008B569468DF800000320ABBE08BD58
:1006E000FEE7000070470000EFF3108072B600BF15
:1006F000FEE700002DE9F04182B08046942040F6EC
:100700000004ADF8060002200E46C4F6000400F016
:10071000ADF820464FF40051002202F057FB43F29F
:1007200004104FF0FF37C2F200000DF1060101AADC
:100730000223009703F02CF8074620464FF400519F
:10074000012202F043FB0FB1002503E09DF80500F4
:1007500000F001059420ADF80600022000F086F8B4
:1007600020464FF40051002202F030FB43F2041007
:100770004FF0FF37C2F200000DF1060101AA02237B
:10078000009703F005F8074620464FF40051012278
:1007900002F01CFB17B102B0BDE8F081002DFAD0C9
:1007A0009DF80500C0F3C2000028F4D00728F2D05D
:1007B00040F26540B0FBF6F010210138A8F82600A1
:1007C000000A8DF807000220A8F824608DF80610B2
:1007D00000F04CF820464FF40051002202F0F6FAE7
:1007E00043F20416C2F200064FF0FF370DF1060186
:1007F00001AA30460223009702F0CAFF304602F0F9
:100800001BFF0128FAD120464FF40051012202F0CB
:10081000DDFA98F8260011218DF8070002208DF8E6
:10082000061000F023F820464FF40051002202F099
:10083000CDFA43F20415C2F200054FF0FF370DF177
:10084000060101AA28460223009702F0A1FF00BF7B
:10085000284602F0F1FE0128FAD120464FF400515B
:10086000012202F0B3FA02B0BDE8F0812DE9F041B7
:1008700084B040F600040646C4F60004FF20ADF83C
:100880000E0020464FF40051002202F09FFA43F27E
:100890000415C2F200054FF0FF380DF10E0103AA56
:1008A00028460223CDF8008002F072FF074620465A
:1008B0004FF40051012202F089FA9DF80D00302119
:1008C00000F0CF0001EA0611002F08BF01447F208D
:1008D0008DF80A008DF80B1020464FF400510022CD
:1008E00002F074FA0DF10A0102AA28460223CDF89B
:1008F000008002F04DFF00BF284602F09DFE012857
:10090000FAD120464FF40051012202F05FFA04B000
:10091000BDE8F0812DE9F04381B0044608469946D0
:100920009046FFF7A3FF09F1010501202946FFF7D3
:100930009FFC06462846FFF7AFFC074644F08000C0
:1009400040F60004C4F60004307020464FF4005115
:10095000002202F03BFA43F204104FF0FF3CABB22E
:10096000C2F2000031463A46CDF800C002F010FF56
:10097000054620464FF40051012202F027FA25B91E
:10098000791C40464A46FFF7DDFC3046FFF7B3FCD2
:100990003846FFF7B0FC284601B0BDE8F083000000
:1009A000F0B581B0044649F69A10C3F619600126E5
:1009B00001210C2232232063009601F011FA03205A
:1009C0000021052201230096002701F089FF3C2029
:1009D00002F0FAF80320002105220123009701F01C
:1009E0007FFF012101F080FE00210C22012304F190
:1009F0002805009600F014FF0320002105220123A2
:100A0000009601F06DFF3C2002F0DEF8032000218B
:100A100005220123009701F063FF3B2000212A46B5
:100A20000123FFF777FF002101F05EFE022501217F
:100A30000C223123009501F0D3F903200021052277
:100A40000123009601F04CFF3C2002F0BDF803208A
:100A5000002105220123009701F042FF012101F04E
:100A600043FEE56201B0F0BD70B582B00C464FF4B4
:100A7000FA71054600F042FA28464FF4FA71FFF782
:100A800039FE0220009001200221022202230126C9
:100A900001F026FF42F20200A5F80D0043F23330C8
:100AA000C4F20320286114200221022202230096AE
:100AB00001F016FF4FF40050E883284621462E77B8
:100AC00000F006F8142002B0BDE8704002F07CB8D7
:100AD000F0B581B004464FF492700029A4F84400A8
:100AE00050D0012940F08A8001251F27682000216D
:100AF0000422052384F83B500097002601F0F0FE05
:100B00006820002104220523009601F0E9FE01205F
:100B100002F05AF80320002106220123009501F07B
:100B2000DFFE692000210422052384F83D50009750
:100B300001F0D6FE84F843700727672000210322C6
:100B40000323009701F0CCFE67200021042201233B
:100B500084F83F50009501F0C3FE67200021002279
:100B6000012384F84050009501F0BAFE7620002160
:100B70000022012384F83E50009601F0B1FE01B03E
:100B8000F0BD00BF0025672000210322032384F865
:100B90003B50009501F0A4FE6720002104220123B0
:100BA00084F83F50009501F09BFE67200021002251
:100BB000012384F84050009501F092FE03200021AB
:100BC0000622012384F83E50009501F089FE1F277C
:100BD000682000210422052384F83D50009701F08D
:100BE0007FFE6820002104220523009501F078FE95
:100BF000012001B0BDE8F04001F0E6BF01B0F0BD5A
:100C00002DE9F04F81B02DED048B8CB0044690F8A7
:100C10003E00012840F0098194F84000012840F08E
:100C2000048194F83F00012840F0FF8042F2D42074
:100C30002044039004F5F250029041F6AC10204499
:100C4000019041F218502044009042F26C70204410
:100C50000B9042F2D82020440A9041F64460204490
:100C6000099041F6B010E18B2044089041F21C50ED
:100C700000EE101A2044B8EE408A079041F2880036
:100C80009FED6D0B2044069051EC100B9FED6C0B0B
:100C90009FED6D1B94ED049A4FF0000904F1880B51
:100CA000CDE9041000205AEC107B55EC116B00BF0D
:100CB00080463BF80000C0BA00EE100AB8EEC00A49
:100CC00080EE080A0698484480ED000A08F1020008
:100CD00080B23BF80000C0BA00EE100AB8EEC00ABD
:100CE00080EE080A0798484480ED000A08F10400E5
:100CF00080B23BF80000C0BA00EE100AB8EEC00A9D
:100D000080EE080A0898484480ED000A08F10600C1
:100D100080B23BF80000C0BA00EE100AB8EEC00A7C
:100D200080EE090A0998484480ED000A08F108009D
:100D300080B23BF80000C0BA00EE100AB8EEC00A5C
:100D400080EE090A0A98484480ED000A08F10A007A
:100D500080B23BF80000C0BA00EE100AB8EEC00A3C
:100D600080EE090A0B98484480ED000A08F10C0057
:100D700080B23BF80000C0BA03F001FCDDE90432A8
:100D800003F038FA3A46534603F078F932462B46D8
:100D900003F074F903F040F904EB09014FF4305209
:100DA000885008F10E0009F10409B9F5926F80B27C
:100DB0007FF47EAF3BF8000094ED041AC0BA00EE59
:100DC000100AB8EEC00A80EE080A009880ED000A0A
:100DD00008F1100080B23BF80000C0BA00EE100A23
:100DE000B8EEC00A80EE080A019880ED000A08F10A
:100DF000120080B23BF80000C0BA00EE100AB8EE54
:100E0000C00A80EE080A029880ED000A08F114007A
:100E100080B23BF80000C0BA00EE100AB8EEC00A7B
:100E200080EE010A039880ED000A0CB0BDEC048B43
:100E300001B0BDE8F08F00BF52B81E85EBDD7440F5
:100E4000000000000000394000000000000016C053
:100E5000F0B583B00746F02040F60005ADF8060077
:100E60000020C4F60005FFF701FD28464FF40051AD
:100E7000002201F0ABFF43F204104FF0FF36C2F244
:100E800000000DF1060101AA0223009602F080FC89
:100E9000064628464FF40051012201F097FF0EB19B
:100EA000002603E09DF8050000F01F06F120ADF8D4
:100EB0000A000020FFF7DAFC28464FF40051002218
:100EC00001F084FF43F204104FF0FF34C2F200003F
:100ED0000DF10A0102AA0223009402F059FC2846EF
:100EE0004FF40051012201F071FF9DF8090040EA22
:100EF0000620A7F8480003B0F0BD00002DE9F0413E
:100F000084B08046812040F60004ADF8060002203F
:100F10000E46C4F60004FFF7A9FC20464FF400512A
:100F2000002201F053FF43F204104FF0FF37C2F2EA
:100F300000000DF1060101AA0223009702F028FC2F
:100F4000074620464FF40051012201F03FFF0FB148
:100F5000002503E09DF8050000F001058120ADF8B3
:100F60000A000220FFF782FC20464FF400510022C5
:100F700001F02CFF43F204104FF0FF37C2F20000E3
:100F80000DF10A0102AA0223009702F001FC0746B4
:100F900020464FF40051012201F018FF17B104B0B0
:100FA000BDE8F081002DFAD09DF80900C0F3C20021
:100FB0000028F4D00728F2D040F26540B0FBF6F0EC
:100FC0000021013888F81A008DF80F000220A8F8D7
:100FD00018608DF80E10FFF749FC20464FF40051C1
:100FE000002201F0F3FE43F20415C2F200054FF0B7
:100FF000FF370DF10E0103AA28460223009702F0E5
:10100000C7FB00BF284602F017FB0128FAD1204693
:101010004FF40051012201F0D9FE04B0BDE8F08187
:10102000F0B583B004469A2040F60005ADF80600FE
:101030000020C4F600050027FFF718FC28464FF4EF
:101040000051002201F0C2FE43F204104FF0FF36BF
:10105000C2F200000DF1060101AA0223009602F07F
:1010600097FB064628464FF40051012201F0AEFEE0
:1010700026B184F83A7003B0F0BD00BF9DF80500BA
:1010800010F0010084F83A0002D103B0F0BD00BFB7
:101090009B20ADF80A0000200027FFF7E7FB284659
:1010A0004FF40051002201F091FE43F204104FF082
:1010B000FF36C2F200000DF10A0102AA02230096D7
:1010C00002F066FB064628464FF40051012201F06B
:1010D0007DFE1EB184F8477003B0F0BD9DF8090095
:1010E00000F01F00012884F84700CED12046FFF70A
:1010F000AFFE04F18802722000214FF480530025D6
:10110000FFF708FC2046FFF77BFD1F276820002122
:1011100004220523009701F0E3FB6820002104224C
:101120000523009501F0DCFB0120012501F04CFDB9
:10113000A57003B0F0BD0000F0B583B004469A205E
:10114000ADF80A0000200027FFF790FB40F60005ED
:10115000C4F6000528464FF40051002201F036FE87
:1011600043F204104FF0FF36C2F200000DF10A0105
:1011700002AA0223009602F00BFB064628464FF413
:101180000051012201F022FE36B184F83A70204667
:1011900000F0D4FA03B0F0BD9DF8090010F0010092
:1011A00084F83A00F3D00020A070204600F078FACE
:1011B000B4F9560003F0E3F99FED3F0B53EC102B0D
:1011C00003F018F89FED3E0B53EC102B02F056FF86
:1011D0009FED3D0B53EC102B02F050FF02F01CFF73
:1011E000A067204600F074F8E08B00EE100AB4F916
:1011F0004A00B8EE400A01EE100AB8EEC11A81EEBC
:10120000000A204684ED180A00F0B0F8E08B00EEEA
:10121000100AB4F94C00B8EE400A01EE100AB8EE1C
:10122000C11A81EE000A204684ED190A00F0ECF89C
:10123000E08B00EE100AB4F94E00B8EE400A01EE61
:10124000100AB8EEC11A81EE000A204684ED1A0A8F
:1012500000F03CF9B4F9500094ED041A00EE100AC5
:10126000B8EEC00A80EE010A204684ED1B0A00F0A9
:101270007BF9B4F9520094ED041A00EE100AB8EEAE
:10128000C00A80EE010A204684ED1C0A00F0BAF97B
:10129000B4F9540094ED041A00EE100AB8EEC00A36
:1012A00080EE010A84ED1D0A204600F047FA03B0E3
:1012B000F0BD00BF00BF00BF52B81E85EBDD74401B
:1012C000000000000000354000000000000016C0D3
:1012D0002DE9F04184B08046AD20ADF80A00002031
:1012E000FFF7C4FA40F60005C4F6000528464FF49F
:1012F0000051002201F06AFD43F20416C2F200061A
:101300004FF0FF370DF10A0102AA30460223009781
:1013100002F03EFA28464FF40051012201F056FD3A
:10132000AE209DF80940ADF80E000020FFF79EFAB0
:1013300028464FF40051002201F048FD0DF10E0146
:1013400003AA30460223009702F022FA28464FF4FF
:101350000051012201F03AFD9DF80D0040EA042001
:10136000A8F84A0004B0BDE8F08100002DE9F04182
:1013700084B08046AF20ADF80A000020FFF776FA6F
:1013800040F60005C4F6000528464FF4005100223F
:1013900001F01CFD43F20416C2F200064FF0FF37C5
:1013A0000DF10A0102AA30460223009702F0F0F97B
:1013B00028464FF40051012201F008FDB0209DF8AD
:1013C0000940ADF80E000020FFF750FA28464FF410
:1013D0000051002201F0FAFC0DF10E0103AA304683
:1013E0000223009702F0D4F928464FF4005101225D
:1013F00001F0ECFC9DF80D0040EA0420A8F84C0038
:1014000004B0BDE8F08100002DE9F04184B08046D1
:10141000B120ADF80A000020FFF728FA40F60005D9
:10142000C4F6000528464FF40051002201F0CEFC1E
:1014300043F20416C2F200064FF0FF370DF10A0125
:1014400002AA30460223009702F0A2F928464FF480
:101450000051012201F0BAFCB2209DF80940ADF81C
:101460000E000020FFF702FA28464FF40051002238
:1014700001F0ACFC0DF10E0103AA304602230097E7
:1014800002F086F928464FF40051012201F09EFC3B
:101490009DF80D0040EA0420A8F84E0004B0BDE815
:1014A000F0810000012909D0002918BF704790F889
:1014B0003B10002908BFFFF73FBE05E090F83B1046
:1014C000012908BFFFF7ACBD704700002DE9F041CE
:1014D00084B08046B320ADF80A000020FFF7C6F9BB
:1014E00040F60005C4F6000528464FF400510022DE
:1014F00001F06CFC43F20416C2F200064FF0FF3715
:101500000DF10A0102AA30460223009702F040F9C9
:1015100028464FF40051012201F058FCB4209DF8F8
:101520000940ADF80E000020FFF7A0F928464FF45F
:101530000051002201F04AFC0DF10E0103AA3046D1
:101540000223009702F024F928464FF400510122AB
:1015500001F03CFC9DF80D0040EA0420A8F8500082
:1015600004B0BDE8F08100002DE9F04184B0804670
:10157000B520ADF80A000020FFF778F940F6000525
:10158000C4F6000528464FF40051002201F01EFC6D
:1015900043F20416C2F200064FF0FF370DF10A01C4
:1015A00002AA30460223009702F0F2F828464FF4D0
:1015B0000051012201F00AFCB6209DF80940ADF867
:1015C0000E000020FFF752F928464FF40051002288
:1015D00001F0FCFB0DF10E0103AA30460223009737
:1015E00002F0D6F828464FF40051012201F0EEFB3C
:1015F0009DF80D0040EA0420A8F8520004B0BDE8B0
:10160000F08100002DE9F04184B08046B720ADF8AC
:101610000A000020FFF72AF940F60005C4F600058D
:1016200028464FF40051002201F0D0FB43F204168B
:10163000C2F200064FF0FF370DF10A0102AA304650
:101640000223009702F0A4F828464FF4005101222B
:1016500001F0BCFBB8209DF80940ADF80E00002059
:10166000FFF704F928464FF40051002201F0AEFBC9
:101670000DF10E0103AA30460223009702F088F80C
:1016800028464FF40051012201F0A0FB9DF80D0007
:1016900040EA0420A8F8540004B0BDE8F08100003E
:1016A0002DE9F04184B08046B920ADF80A00002051
:1016B000FFF7DCF840F60005C4F6000528464FF4B5
:1016C0000051002201F082FB43F20416C2F2000630
:1016D0004FF0FF370DF10A0102AA304602230097AE
:1016E00002F056F828464FF40051012201F06EFB3B
:1016F000BA209DF80940ADF80E000020FFF7B6F8BB
:1017000028464FF40051002201F060FB0DF10E015C
:1017100003AA30460223009702F03AF828464FF415
:101720000051012201F052FB9DF80D0040EA042017
:10173000A8F8560004B0BDE8F081000070B584B090
:101740000446062000210C2211230090002500F001
:1017500067F801260320002105220123009601F0ED
:10176000BFF83C2001F030FA0320002105220123BC
:10177000009501F0B5F80DF109023B200021062388
:10178000FFF7C8F8002100F0AFFFBDF90900BDF96F
:101790000B10BDF90D2000EE100A94ED0C1A02EEAC
:1017A000101A03EE102AB8EEC00AB8EEC22AB8EE3C
:1017B000C33AA4F85A10A4F85C2021EE000A21EEE6
:1017C000022A21EE031A00210C221823A4F8580043
:1017D00084ED1F0A84ED202A84ED211A009600F082
:1017E0001FF80320002105220123009601F078F85C
:1017F0003C2001F0E9F90320002105220123009596
:1018000001F06EF80DF10F023B2000210123FFF7DC
:1018100081F8002104B0BDE8704000F065BF000011
:101820002DE9F04182B0DDF8208040F600041D462D
:101830000429C4F6000400F27D80DFE811F0050001
:10184000F1006701DD01530242F0800003218DF8B1
:10185000070003208DF80610FFF708F820464FF424
:101860000051002201F0B2FA43F20416C2F200065F
:101870004FF0FF370DF1060101AA30460223009711
:1018800001F086FF304601F0D7FE0128FAD120464C
:101890004FF40051012201F099FA04208DF806005E
:1018A00003208DF80750FEF7E1FF20464FF400516A
:1018B000002201F08BFA43F20415C2F200054FF04A
:1018C000FF370DF1060101AA28460223009701F017
:1018D0005FFF00BF284601F0AFFE0128FAD1204685
:1018E0004FF40051012201F071FA48F08000052107
:1018F0008DF8070003208DF80610FEF7B7FF20468D
:101900004FF40051002201F061FA43F20415C2F2D3
:1019100000054FF0FF370DF1060101AA284602230A
:10192000009701F035FF00BF284601F085FE012831
:10193000FAD14CE242F0800003218DF80700032029
:101940008DF80610FEF792FF20464FF4005100225A
:1019500001F03CFA43F20416C2F200064FF0FF37E2
:101960000DF1060101AA30460223009701F010FF95
:10197000304601F061FE0128FAD120464FF40051B3
:10198000012201F023FA04208DF8060003208DF8CF
:101990000750FEF76BFF20464FF40051002201F084
:1019A00015FA43F20415C2F200054FF0FF370DF1AE
:1019B000060101AA28460223009701F0E9FE00BFB4
:1019C000284601F039FE0128FAD120464FF4005193
:1019D000012201F0FBF948F0800005218DF8070095
:1019E00003208DF80610FEF741FF20464FF400510A
:1019F000002201F0EBF943F20415C2F200054FF0AA
:101A0000FF370DF1060101AA28460223009701F0D5
:101A1000BFFE00BF284601F00FFE0128FAD1D6E133
:101A200042F0800007218DF8070003208DF8061092
:101A3000FEF71CFF20464FF40051002201F0C6F9CA
:101A400043F20416C2F200064FF0FF370DF1060113
:101A500001AA30460223009701F09AFE304601F0B9
:101A6000EBFD0128FAD120464FF40051012201F08C
:101A7000ADF908208DF8060003208DF80750FEF719
:101A8000F5FE20464FF40051002201F09FF943F289
:101A90000415C2F200054FF0FF370DF1060101AA4F
:101AA00028460223009701F073FE00BF284601F08C
:101AB000C3FD0128FAD120464FF40051012201F064
:101AC00085F948F0800009218DF8070003208DF882
:101AD0000610FEF7CBFE20464FF40051002201F025
:101AE00075F943F20415C2F200054FF0FF370DF10E
:101AF000060101AA28460223009701F049FE00BF13
:101B0000284601F099FD0128FAD160E142F08000F9
:101B10000B218DF8070003208DF80610FEF7A6FEB6
:101B200020464FF40051002201F050F943F2041610
:101B3000C2F200064FF0FF370DF1060101AA304650
:101B40000223009701F024FE304601F075FD0128C4
:101B5000FAD120464FF40051012201F037F90C2050
:101B60008DF8060003208DF80750FEF77FFE204613
:101B70004FF40051002201F029F943F20415C2F29A
:101B800000054FF0FF370DF1060101AA2846022398
:101B9000009701F0FDFD00BF284601F04DFD012832
:101BA000FAD120464FF40051012201F00FF948F01C
:101BB00080000D218DF8070003208DF80610FEF738
:101BC00055FE20464FF40051002201F0FFF843F289
:101BD0000415C2F200054FF0FF370DF1060101AA0E
:101BE00028460223009701F0D3FD00BF284601F0EC
:101BF00023FD0128FAD1EAE042F080000F218DF8A0
:101C0000070003208DF80610FEF730FE20464FF443
:101C10000051002201F0DAF843F20416C2F2000685
:101C20004FF0FF370DF1060101AA3046022300975D
:101C300001F0AEFD304601F0FFFC0128FAD120464C
:101C40004FF40051012201F0C1F810208DF8060078
:101C500003208DF80750FEF709FE20464FF400518F
:101C6000002201F0B3F843F20415C2F200054FF070
:101C7000FF370DF1060101AA28460223009701F063
:101C800087FD00BF284601F0D7FC0128FAD1204685
:101C90004FF40051012201F099F848F080000D2125
:101CA0008DF8070003208DF80610FEF7DFFD2046B3
:101CB0004FF40051002201F089F843F20415C2F2FA
:101CC00000054FF0FF370DF1060101AA2846022357
:101CD000009701F05DFD00BF284601F0ADFC012832
:101CE000FAD174E042F0800013218DF80700032040
:101CF0008DF80610FEF7BAFD20464FF40051002281
:101D000001F064F843F20416C2F200064FF0FF3708
:101D10000DF1060101AA30460223009701F038FDBB
:101D2000304601F089FC0128FAD120464FF40051D9
:101D3000012201F04BF814208DF8060003208DF8E5
:101D40000750FEF793FD20464FF40051002201F0AA
:101D50003DF843F20415C2F200054FF0FF370DF1D4
:101D6000060101AA28460223009701F011FD00BFD9
:101D7000284601F061FC0128FAD120464FF40051B9
:101D8000012201F023F848F0800015218DF80700AA
:101D900003208DF80610FEF769FD20464FF4005130
:101DA000002201F013F843F20415C2F200054FF0CF
:101DB000FF370DF1060101AA28460223009701F022
:101DC000E7FC00BF284601F037FC0128FAD1204685
:101DD0004FF40051012200F0F9FF02B0BDE8F0819C
:101DE0002DE9F04182B0DDF8208040F600041D4668
:101DF0000429C4F6000400F29F80DFE811F005001A
:101E00003501CD016502FD0203208DF80600032097
:101E10008DF80720FEF72AFD20464FF400510022DE
:101E200000F0D4FF43F20416C2F200064FF0FF3771
:101E30000DF1060101AA30460223009701F0A8FC2B
:101E4000304601F0F9FB0128FAD120464FF4005149
:101E5000012200F0BBFF04208DF8060003208DF85E
:101E60000750FEF703FD20464FF40051002200F01A
:101E7000ADFF43F20415C2F200054FF0FF370DF13C
:101E8000060101AA28460223009701F081FC00BF49
:101E9000284601F0D1FB0128FAD120464FF4005129
:101EA000012200F093FF06208DF8060003208DF834
:101EB0000780FEF7DBFC20464FF40051002200F0C3
:101EC00085FF43F20415C2F200054FF0FF370DF114
:101ED000060101AA28460223009701F059FC00BF21
:101EE000284601F0A9FB0128FAD120464FF4005101
:101EF000012200F06BFF48F20510ADF80600032048
:101F0000FEF7B4FC20464FF40051002200F05EFFC3
:101F100043F20415C2F200054FF0FF370DF1060140
:101F200001AA28460223009701F032FC284601F05E
:101F300083FB0128FAD1F6E203208DF80600032086
:101F40008DF80720FEF792FC20464FF40051002246
:101F500000F03CFF43F20416C2F200064FF0FF37D8
:101F60000DF1060101AA30460223009701F010FC92
:101F7000304601F061FB0128FAD120464FF40051B0
:101F8000012200F023FF04208DF8060003208DF8C5
:101F90000750FEF76BFC20464FF40051002200F082
:101FA00015FF43F20415C2F200054FF0FF370DF1A3
:101FB000060101AA28460223009701F0E9FB00BFB1
:101FC000284601F039FB0128FAD120464FF4005190
:101FD000012200F0FBFE06208DF8060003208DF89C
:101FE0000780FEF743FC20464FF40051002200F02A
:101FF000EDFE43F20415C2F200054FF0FF370DF17C
:10200000060101AA28460223009701F0C1FB00BF88
:10201000284601F011FB0128FAD120464FF4005167
:10202000012200F0D3FE48F20510ADF806000320AF
:10203000FEF71CFC20464FF40051002200F0C6FEC3
:1020400043F20415C2F200054FF0FF370DF106010F
:1020500001AA28460223009701F09AFB284601F0C6
:10206000EBFA0128FAD15EE207208DF80600032082
:102070008DF80720FEF7FAFB20464FF400510022AE
:1020800000F0A4FE43F20416C2F200064FF0FF3740
:102090000DF1060101AA30460223009701F078FBFA
:1020A000304601F0C9FA0128FAD120464FF4005118
:1020B000012200F08BFE08208DF8060003208DF829
:1020C0000750FEF7D3FB20464FF40051002200F0EA
:1020D0007DFE43F20415C2F200054FF0FF370DF10B
:1020E000060101AA28460223009701F051FB00BF18
:1020F000284601F0A1FA0128FAD120464FF40051F8
:10210000012200F063FE0A208DF8060003208DF8FE
:102110000780FEF7ABFB20464FF40051002200F091
:1021200055FE43F20415C2F200054FF0FF370DF1E2
:10213000060101AA28460223009701F029FB00BFEF
:10214000284601F079FA0128FAD120464FF40051CF
:10215000012200F03BFE48F20910ADF80600032012
:10216000FEF784FB20464FF40051002200F02EFEC3
:1021700043F20415C2F200054FF0FF370DF10601DE
:1021800001AA28460223009701F002FB284601F02D
:1021900053FA0128FAD1C6E10B208DF8060003207E
:1021A0008DF80720FEF762FB20464FF40051002215
:1021B00000F00CFE43F20416C2F200064FF0FF37A7
:1021C0000DF1060101AA30460223009701F0E0FA62
:1021D000304601F031FA0128FAD120464FF400517F
:1021E000012200F0F3FD0C208DF8060003208DF88D
:1021F0000750FEF73BFB20464FF40051002200F051
:10220000E5FD43F20415C2F200054FF0FF370DF172
:10221000060101AA28460223009701F0B9FA00BF7F
:10222000284601F009FA0128FAD120464FF400515E
:10223000012200F0CBFD0E208DF8060003208DF862
:102240000780FEF713FB20464FF40051002200F0F8
:10225000BDFD43F20415C2F200054FF0FF370DF14A
:10226000060101AA28460223009701F091FA00BF57
:10227000284601F0E1F90128FAD120464FF4005137
:10228000012200F0A3FD48F20D10ADF80600032076
:10229000FEF7ECFA20464FF40051002200F096FDC4
:1022A00043F20415C2F200054FF0FF370DF10601AD
:1022B00001AA28460223009701F06AFA284601F095
:1022C000BBF90128FAD12EE10F208DF8060003207A
:1022D0008DF80720FEF7CAFA20464FF4005100227D
:1022E00000F074FD43F20416C2F200064FF0FF370F
:1022F0000DF1060101AA30460223009701F048FAC9
:10230000304601F099F90128FAD120464FF40051E6
:10231000012200F05BFD10208DF8060003208DF8EF
:102320000750FEF7A3FA20464FF40051002200F0B8
:102330004DFD43F20415C2F200054FF0FF370DF1D9
:10234000060101AA28460223009701F021FA00BFE6
:10235000284601F071F90128FAD120464FF40051C6
:10236000012200F033FD12208DF8060003208DF8C5
:102370000780FEF77BFA20464FF40051002200F060
:1023800025FD43F20415C2F200054FF0FF370DF1B1
:10239000060101AA28460223009701F0F9F900BFBF
:1023A000284601F049F90128FAD120464FF400519E
:1023B000012200F00BFD48F20D10ADF806000320DD
:1023C000FEF754FA20464FF40051002200F0FEFCC4
:1023D00043F20415C2F200054FF0FF370DF106017C
:1023E00001AA28460223009701F0D2F9284601F0FD
:1023F00023F90128FAD196E013208DF80600032076
:102400008DF80720FEF732FA20464FF400510022E3
:1024100000F0DCFC43F20416C2F200064FF0FF3776
:102420000DF1060101AA30460223009701F0B0F930
:10243000304601F001F90128FAD120464FF400514D
:10244000012200F0C3FC14208DF8060003208DF853
:102450000750FEF70BFA20464FF40051002200F01F
:10246000B5FC43F20415C2F200054FF0FF370DF141
:10247000060101AA28460223009701F089F900BF4E
:10248000284601F0D9F80128FAD120464FF400512E
:10249000012200F09BFC16208DF8060003208DF829
:1024A0000780FEF7E3F920464FF40051002200F0C8
:1024B0008DFC43F20415C2F200054FF0FF370DF119
:1024C000060101AA28460223009701F061F900BF26
:1024D000284601F0B1F80128FAD120464FF4005106
:1024E000012200F073FC48F21510ADF8060003203D
:1024F000FEF7BCF920464FF40051002200F066FCC4
:1025000043F20415C2F200054FF0FF370DF106014A
:1025100001AA28460223009701F03AF9284601F063
:102520008BF80128FAD120464FF40051012200F027
:102530004DFC02B0BDE8F081F0B581B00C46054617
:10254000002606200021032201230096012700F027
:10255000C7F90720002105220323AF72009600F07F
:10256000BFF90720002102220323EE76009600F037
:10257000B7F92E7304B3022C38D0012C5CD100269D
:1025800006200021062201230096012700F0A8F969
:102590000520002104220123EE71009700F0A0F92C
:1025A00005200021052201232F75009700F098F9DE
:1025B00085F8207040E000BF06200021062201239C
:1025C000009600F08DF90520002104220123EE7110
:1025D000009600F085F905200021052201232E75C3
:1025E000009600F07DF985F8206025E0022085F84E
:1025F0002000012606200021032201230096002747
:1026000000F06EF9AF72072707200021052203238F
:10261000009700F065F90720002102220323EF76DE
:10262000009700F05DF906200021062201232F7398
:10263000009600F055F9EE710620002105220123D5
:10264000009400F04DF9012001B0BDE8F04000F029
:10265000BBBA00002DE9F04F83B040F6000543F20D
:1026600004180446C4F600054FF0860B4FF0FF3AFD
:10267000C2F200080DF10A0902AE00BF06200021D7
:10268000072201230127009700F02AF9322000F0E9
:102690009BFA0020ADF80AB0FEF7E8F828464FF4A0
:1026A0000051002200F092FB404649463246022388
:1026B000CDF800A001F06CF8074628464FF4005111
:1026C000012200F083FB4FB99DF8090041B2C00917
:1026D00000292071D2D403B0BDE8F08F0020207112
:1026E00003B0BDE8F08F0000F0B583B0052040F6E0
:1026F0000007ADF80A0003200D46C4F60007FEF7F8
:10270000B5F838464FF40051002200F05FFB43F269
:102710000416C2F200064FF0FF340DF10A0102AABE
:1027200030460223009401F033F800BF304600F039
:1027300083FF0128FAD138464FF40051012200F0FE
:1027400045FB042D24D8DFE805F003436383A30091
:102750000520ADF80A000320FEF788F838464FF44C
:102760000051002200F032FB43F20415C2F20005D2
:102770004FF0FF360DF10A0102AA28460223009607
:1027800001F006F8284600F057FF0128FAD19EE034
:102790000520ADF80A000320FEF768F838464FF42C
:1027A0000051002200F012FB43F20415C2F20005B2
:1027B0004FF0FF360DF10A0102AA284602230096C7
:1027C00000F0E6FF284600F037FF0128FAD17EE04E
:1027D0000920ADF80A000320FEF748F838464FF408
:1027E0000051002200F0F2FA43F20415C2F2000593
:1027F0004FF0FF360DF10A0102AA28460223009687
:1028000000F0C6FF284600F017FF0128FAD15EE06D
:102810000D20ADF80A000320FEF728F838464FF4E3
:102820000051002200F0D2FA43F20415C2F2000572
:102830004FF0FF360DF10A0102AA28460223009646
:1028400000F0A6FF284600F0F7FE0128FAD13EE08E
:102850001120ADF80A000320FEF708F838464FF4BF
:102860000051002200F0B2FA43F20415C2F2000552
:102870004FF0FF360DF10A0102AA28460223009606
:1028800000F086FF284600F0D7FE0128FAD11EE0AE
:102890001520ADF80A000320FDF7E8FF38464FF495
:1028A0000051002200F092FA43F20415C2F2000532
:1028B0004FF0FF360DF10A0102AA284602230096C6
:1028C00000F066FF284600F0B7FE0128FAD138462E
:1028D0004FF40051012200F079FA03B0F0BD00007E
:1028E0002DE9F04383B0072A4FF001042FD81E468C
:1028F000082B2CD8054640F080008DF80A000020F7
:1029000040F600088DF80B0008461746C4F600088C
:10291000FDF7ACFF40464FF40051002200F056FA9C
:1029200043F204104FF0FF39C2F200000DF10A012A
:1029300002AA0223CDF8009000F02AFF0446404688
:102940004FF40051012200F041FA2CB1012420463D
:1029500003B0BDE8F08300BF0A9809FA06F2BB1B7A
:102960009DF80910D24301339A409840104091439A
:1029700008448DF8070040464FF4005100228DF8BE
:10298000065000F023FA43F20415C2F200050DF1DF
:10299000060101AA28460223CDF8009000F0F8FEB7
:1029A000044600BF284600F047FE0128FAD1404601
:1029B0004FF40051012200F009FA204603B0BDE8AF
:1029C000F083000000000000F0B583B0044603204F
:1029D00000F0FAF88020ADF80A0000200027FDF78B
:1029E00045FF40F60005C4F6000528464FF40051A7
:1029F000002200F0EBF943F204104FF0FF36C2F270
:102A000000000DF10A0102AA0223009600F0C0FEA8
:102A1000064628464FF400510122012500F0D6F960
:102A200016B99DF8090060712046FFF713FE0320D8
:102A30000021072201230097FFF752FF54200021B5
:102A4000002201230095FFF74BFF03200021042201
:102A5000012367720095FFF743FF20460021A5710F
:102A6000FFF76AFD06200021022203230095FFF7ED
:102A700037FF012002210022012325720095FFF774
:102A80002FFF142002210022012365750095FFF716
:102A900027FF012002210522032384F821500095FD
:102AA000FFF71EFF1420022105220323A5750095C0
:102AB000FFF716FF532002210222032384F822503D
:102AC0000095FFF70DFF4FF49270A4F844006720C3
:102AD000002103220323E57284F83B700097FFF77F
:102AE000FFFE672000210422012384F83F70009735
:102AF000FFF7F6FE672000210022012384F84070D2
:102B00000097FFF7EDFE032000210622012384F841
:102B10003E700097FFF7E4FE1F2668200021042284
:102B2000052384F83D700096FFF7DAFE6820002147
:102B3000042205230097FFF7D3FE012000F044F89C
:102B40000F200021072201230095FFF7C9FE0F2067
:102B50000021062201230095FFF7C2FE0F2000216D
:102B6000052201230095FFF7BBFE40F20110A4F8F7
:102B70003700012003210422012384F839500095F5
:102B8000FFF7AEFE00200321032204230095FFF788
:102B9000A7FE9FED090B012001F0B6F953EC102BB5
:102BA0009FED070B51EC100B01F024FB01F0B8FC7A
:102BB000A08603B0F0BD00BF000000000000F03FA1
:102BC0000000000000309140B0B5044600F004F968
:102BD000054640F20000C2F200000078611C18BFF8
:102BE000044400BF00F0F8F8401BA042FAD3B0BD87
:102BF0002DE9F04F84B08E4641F20002C4F6000287
:102C0000DEF8004005219042019008BF0421002C0D
:102C1000009100F0D7800198002500F138424FEA7A
:102C2000B2230098012700264FF00008042B38BF7C
:102C300018460090CDF808E00EE000BFDEF8004036
:102C400008F1010834FA07F106F1020607F101075D
:102C500005F1040500F0B680A7F1010A012000FA91
:102C60000AF314EA0309E9D0DEF804C00CF0030B00
:102C7000ABF10104012C17D8019874468168032236
:102C8000E468B2409143B4402143816041684FEA17
:102C9000480E9943CCF3001303FA0AF30446D043D9
:102CA000194361600CE000BF0321B140019CC8439F
:102CB000BBF1030FB64603D1B6464FF0030B23E03A
:102CC000E168029A01409368BBF1020F03FA0EF328
:102CD00041EA0301E16017D16FF0030101EA5A01F3
:102CE000214405F01C040F23D1F820C003FA04FB93
:102CF00013692CEA0B0CA34043EA0C03019C0B6202
:102D0000D2F804C00CF0030B21680BFA0EF201405C
:102D100011432160DDF808E01CF4403F8ED041F201
:102D20001800C4F20200016840F2004C41F00101B9
:102D300001600168C4F2010C01F0010103910399E3
:102D40002AF003014FF6084A6144CFF6FF7A05F0F6
:102D50000C030F2051F80A2000FA03F40098A24354
:102D600000FA03F31A4341F80A20DCF80010DEF8F9
:102D7000042041EA0903D40358BF21EA0903CCF82F
:102D80000030DCF80410940341EA090358BF21EA3B
:102D90000903CCF80430DCF8081040F20C4041EA9A
:102DA0000903D40258BF21EA0903CCF80830C4F261
:102DB00001000168920241EA090358BF21EA0903B0
:102DC00003603BE704B0BDE8F08F00001823002A41
:102DD00008BF2823C150704743F26810C2F20000B8
:102DE0000068704740F2000043F26811C2F2000030
:102DF000C2F2000100780A681044086070470000C1
:102E000080B542F20000C4F20200016841F01001F6
:102E10000160032000F072F80F2000F005F800F0C8
:102E200027F8002080BD000070B540F20006C2F215
:102E3000000640F208013278C2F200014FF47A73C2
:102E40000968B3FBF2F20446B1FBF2F1084600F068
:102E500011FE0F2C4FF0010508D838B94FF0FF30A4
:102E600021460022002500F01DF87460284670BD40
:102E700082B041F21800C4F20200016841F0010181
:102E80000160016801F0010101910199416841F07F
:102E900080514160406800F080500090009802B07E
:102EA0007047000010B54EF60C5CCEF2000CDCF85A
:102EB0000030C3F3022E8EF00704042C28BF042434
:102EC000BEF103034FF0FF3E0EFA04F438BF0023B7
:102ED000A14399400EFA03F39A43114300F00F0205
:102EE000043A624409010C3200F16043B0F1FF3F43
:102EF000C8BF03F56442117010BD00004EF60C51BE
:102F0000CEF200010A684FF6FF031A4060F30A226E
:102F100042F0806040F0FD70086070472DE9F0419C
:102F200082B00446807841F23006C007C4F202063F
:102F300056D056F8140C10F080580BD156F8140CDB
:102F400040F0805046F8140C56F8140C00F08050F5
:102F50000190019847F20007C4F200073868C005E5
:102F600012D4386840F480703860FFF735FF0546AA
:102F70003868C00508D4FFF72FFF401B6428F7D935
:102F8000032002B0BDE8F08156F8100C10F4407038
:102F900015D0616801F44071884210D056F8100CC9
:102FA00040F24042C4F24222012320F440711360F7
:102FB0000023C007136046F8101C40F0A38056F8A9
:102FC000100C616820F440700843B8F1000F46F817
:102FD000100C05D156F8140C20F0805046F8140C53
:102FE0002068C1071CD1810722D4410728D481065B
:102FF0002ED4810334D441063CD4010742D4C10607
:1030000048D481054ED4010656D4C1055ED4C1040E
:1030100066D480046CD4002002B0BDE8F08100BF0B
:103020003168A26821F00301114331608107DCD5CA
:103030003168E26821F44031114331604107D6D54F
:103040003168226921F44021114331608106D0D5D5
:103050003168E26921F01001114331608103CAD562
:1030600056F82C1CA26B21F48001114346F82C1C4D
:103070004106C2D53168226A21F020011143316036
:103080000107BCD53168626921F4401111433160F8
:10309000C106B6D53168A26921F4400111433160FF
:1030A0008105B0D556F82C1CE26A21F400011143C9
:1030B00046F82C1C0106A8D556F8041C626A21F4B7
:1030C000F871114346F8041CC105A0D556F8041C3C
:1030D000A26A21F47851114346F8041CC10498D522
:1030E0003168226B21F4807111433160800492D5E4
:1030F0003068616B20F4007008433060002002B03B
:10310000BDE8F081FFF768FE054641F2883700BF51
:1031100056F8100C80073FF552AFFFF75DFE401BDD
:10312000B8424FF00300F3D9E9E700002DE9F0437E
:1031300081B0002877D042F20008C4F202080446A9
:10314000D8F800000D4600F0070088420CD2D8F8ED
:10315000000020F007002843C8F80000D8F800005D
:1031600000F00700A8425ED1206841F204098107FF
:10317000C4F2020907D5D9F80010A26821F0F001C5
:103180001143C9F80010C00744D1D8F8000000F07E
:103190000700A8420CD9D8F8000020F00700284307
:1031A000C8F80000D8F8000000F00700A8423AD1A3
:1031B0002068410707D5D9F80010E26821F4E061E2
:1031C0001143C9F80010000708D5D9F8000021699B
:1031D00020F4605040EAC100C9F80000D9F800208E
:1031E00002F00C00082841F20020C0F27A0051D110
:1031F00044F6A823C2F38341C0F60003595CD9F812
:103200002830D2033CD440F60010C0F23D004843C1
:1032100040E000BF606802280AD001282AD159F88E
:10322000041C890308D4012001B0BDE8F08300BF6D
:1032300059F8041C8901F6D5D9F8001021F00301D2
:103240000843C9F80000FFF7C7FD064641F288377A
:10325000D9F80000616800F00C00B0EB810F94D049
:10326000FFF7BAFD801BB842F2D9032001B0BDE8D8
:10327000F08300BF59F8041C8907D4D5DCE700BFF0
:1032800003F00F0244F6B823C0F600039A5CB0FBCB
:10329000F2F04843D9F8001044F69822C1F3031124
:1032A000C0F60002515C40F2080220FA01F140F23F
:1032B0000400C2F200000068C2F200021160FFF7D1
:1032C000B3FD002001B0BDE8F08300002DE9F0411E
:1032D00082B0002850D00446007841F20006C007B2
:1032E000C4F202060AD0706800F00C00042840F016
:1032F00085803068800301D56068E8B32078800756
:103300001AD5706810F00C0F09D0706800F00C002E
:10331000082840F0A5807068C00300F1A1803068E3
:10332000800702D52069012826D13068616920F024
:10333000F80040EAC10030602078000720D42078EF
:10334000400735D4E56995B1706800F00C00082895
:1033500040F0C280012D0FD07068216A00F48032E5
:103360008A4209D1616A00F47010884204D10020B9
:1033700002B0BDE8F08100BF012002B0BDE8F081DD
:10338000A069002800F094800020C4F242200121AE
:10339000C0F88014FFF720FD054600BF706A800763
:1033A000CDD4FFF719FD401B0228F7D91CE100BF5F
:1033B000F06910F0805808D1F06940F08050F06159
:1033C000F06900F080500190019847F20007C4F2C4
:1033D00000073868C00559D4386840F480703860F8
:1033E000FFF7FAFC054600BF3868C0054ED4FFF76A
:1033F000F3FC401B6428F7D9F6E000BF706800F0CA
:103400000C00082803D17068C0033FF572AF6068F4
:10341000B0F5A02F00F09480B0F5803F00F09480CC
:10342000002840F09580306820F4803030603068AB
:1034300020F480203060F06AA16820F00F0008437B
:10344000F062FFF7C9FC0546306880037FF556AF90
:10345000FFF7C2FC401B64284FF00300F4D987E754
:103460002069002840F20000C4F2422056D0012119
:103470000160FFF7B1FC0546306880073FF555AFA6
:10348000FFF7AAFC401B0228F6D9ADE0E06800284F
:1034900000F07A80052800F09180012800F09280E9
:1034A000306A20F001003062306A20F004008CE0C5
:1034B0000020C4F242200021C0F88014FFF78CFCE9
:1034C000054600BF706A80077FF539AFFFF784FCBF
:1034D000401B0228F6D987E00027C4F242270020CB
:1034E0003866FFF779FC022D05460BD13068800164
:1034F00040F18880FFF770FC401B02284FF003006A
:10350000F4D935E7306880017FF531AFFFF764FC0F
:10351000401B02284FF00300F4D929E70021016085
:10352000FFF75AFC054600BF306880077FF504AFFF
:10353000FFF752FC401B02284FF00300F4D917E7B5
:10354000306840F480203060306840F4803006E01D
:10355000306820F480303060306820F480203060A3
:10356000F06AA16820F00F000843F062FFF734FC16
:10357000054600BF306880033FF5C0AEFFF72CFC66
:10358000401B6428F6D92FE0306A20F00100306239
:10359000306A20F004003062FFF71EFC054641F25D
:1035A000883700BF306A800722D5FFF715FC401B23
:1035B000B8424FF00300F5D9DAE600BF306A40F0B8
:1035C00004003062306A40F001003062FFF704FC12
:1035D000054641F2883700BF306A800708D4FFF7FC
:1035E000FBFB401BB842F7D9032002B0BDE8F081D5
:1035F000B8F1000F7FF4A6AEF06920F08050F061C2
:10360000A0E600BF7068D4E9082120F474100843D4
:103610001043706001203866FFF7DEFB044600BFF0
:10362000306880013FF5A3AEFFF7D6FB001B0228F0
:103630004FF00300F4D99BE690F85D00704700005E
:10364000002804BF01207047B0B50446406A28B185
:103650000020206104F1140006E000BF6068B0F5AE
:10366000827F03D004F11C00002101600025A562C7
:1036700094F85D0020B9204684F85C5000F052F8C0
:10368000022084F85D002068D4F80CE00268BEF5E2
:10369000E06F22F0400202604EF4006298BF012504
:1036A000B2F5706F1CBF0023A3624FEA053CD4E95A
:1036B0000135D4E9042103F4827305F404452B4455
:1036C00002F002021A44A36901F00101E569114404
:1036D00003F40072114405F03802256A114405F024
:1036E0008002A56A114405F40052114301600421CF
:1036F000626A0EF4706501EA1341636B45EA0C05DA
:1037000002F01002294303F00803114319434160FA
:10371000C16921F40061C16100200121206684F8A3
:103720005D10B0BD80B586B0006843F20001C4F200
:103730000101884202D006B080BD00BF41F21400F2
:10374000C4F20200416841F480514160416801F4D3
:10375000805101910199016841F480210160006864
:1037600001A900F4802001900198382001900220E6
:10377000029000200390032004900520059040F261
:103780000040C4F60000FFF733FA06B080BD000029
:103790002DE9F04381B0044690F85C00012803D184
:1037A000022001B0BDE8F08301201E4615460F46F9
:1037B00084F85C00FFF710FB94F85D108146012946
:1037C00040F0B080002F4FF0010018BF002D00F036
:1037D0004681002E00F0438194F85D0004281CBF50
:1037E000052084F85D00002020662564A4F846606A
:1037F000A4F84460A763E687C4E913002068A6879D
:10380000E1684268B1F5E06F22F48052134698BF38
:1038100003F58053012E88BF1346436002685206A9
:1038200003D4026842F0400202606268731EB2FA7A
:1038300082F2B3FA83F3DDF8208052095B09B1F517
:10384000E06F43EA02017DD931B137F8021BC16054
:10385000A763E08F0138E087012518F1010035D119
:1038600002E000BFFFF7B8FAE08F20B9B4F84600D5
:10387000002800F0D7802068816889070CD5E18F87
:1038800051B1012D08D1A16B002531F8022BC26086
:10389000A163E18F0139E1878168C907E2D0B4F8FB
:1038A00046100029DED0C068216C012521F8020BEA
:1038B0002164B4F846000138A4F84600D2E700BFFE
:1038C000FFF78AFAA0EB0900404545D2E08F20B906
:1038D000B4F84600002800F0A580206881688907B8
:1038E0000CD5E18F51B1012D08D1A16B002531F824
:1038F000022BC260A163E18F0139E1878168C907AA
:10390000DED0B4F846100029DAD0C068216C012559
:1039100021F8020B2164B4F846000138A4F84600EF
:10392000CEE700BF6068B0F5827F09D1A0680028AB
:103930004FF0020008BF042940F0918042E700BF29
:1039400002208CE099B1E18F02294FF6FE7105D378
:1039500037F8022BC26006E0032080E03A7801319C
:103960000273A06B471CA763E08F0844E087012621
:1039700008F10105E08F18B9B4F84600002851D0CD
:103980002068816889071AD5E18FC1B1012E16D14F
:10399000E18F022908D3A16B31F8022BC260A16329
:1039A000E18F023909E000BFA16B09780173A16BB7
:1039B00020680131A163E18F01390026E187816828
:1039C000C90725D0B4F8461011B3B4F8461002293F
:1039D00012D3C168226C22F8021B2264B4F846108C
:1039E0000239A4F84610B4F8461001290FD84168EE
:1039F00041F4805141600AE0007B216C0870206C2A
:103A000001302064B4F846000138A4F846000126CD
:103A1000FFF7E2F9002DADD0A0EB09004045A9D396
:103A200003201CE020464FF4C05142464B4600F0B4
:103A3000D1F868B9204641464A4600F08FF938B9B6
:103A400020464FF4C06142464B4600F0C3F878B1BF
:103A5000206E40F0200020662020206601200121F9
:103A600084F85D10002184F85C1001B0BDE8F0839B
:103A70000020F4E7411E0020B0EB116F1CBF0120B5
:103A800070474EF21002CEF2000251604EF6235102
:103A9000CEF20001F0230B70072190601160704797
:103AA000FEE700002DE9F04387B0002741F2140043
:103AB0000697C4F20200016840F2004841F4002178
:103AC00001600168C4F6000801F400210191019928
:103AD000016808F5806641F48001016001680122F7
:103AE00001F480010191019901684FF4005541F4FE
:103AF000003101600168012401F400310191019954
:103B0000016841F48021016000684FF4005100F425
:103B10008020019001983046FFF758F94046402137
:103B200000224FF04009FFF751F9CDE9025402ADF0
:103B300030462946CDE90447FFF75AF84FF4847020
:103B4000CDE902074FF0904029460497FFF750F85F
:103B50000420CDE90207404629460497FFF748F8BC
:103B600040462946CDE90294CDE90474FFF740F8B8
:103B700007B0BDE8F083000010B543F2041043F233
:103B80000001C2F20000C4F201014FF4827200236E
:103B90004FF4E06C4FF4007E102480E80E100721F3
:103BA0000822C0E90433C0E906E4C0E90833C0E9EB
:103BB0000A31C0E90C32FFF743FD002808BF10BDF1
:103BC000BDE81040FCF790BDFEE70000FEE70000F6
:103BD000704700002DE9F04782B000261F4690464E
:103BE0000D4681468DF80360FFF7F6F8381A00EBB2
:103BF0000807FFF7F1F840F20801C2F20001096876
:103C000023225143090DD9F8004079430191A1685D
:103C1000294271D0824618F1010037D0B5F5C06F46
:103C20001CD100BF207B8DF803009DF80300FFF737
:103C3000D3F8A0EB0A00B84262D20198019900289B
:103C4000A1F101010191D9F80010896808BF074668
:103C500011F4C06FE6D100264EE000BFFFF7BCF8BC
:103C6000A0EB0A00B8424BD2019801990028A1F1BB
:103C700001010191D9F80010896808BF074629425F
:103C8000ECD10026304602B0BDE8F0870026B5F53D
:103C9000C06F25D1207B8DF803009DF80300A0683C
:103CA00010F4C06FEDD0207B8DF803009DF8030069
:103CB000A06810F4C06FE4D0207B8DF803009DF85D
:103CC0000300A06810F4C06FDBD0207B8DF80300E8
:103CD0009DF80300A06810F4C06FDBD10CE000BFBA
:103CE000A0682842CDD0A0682842CAD0A068284247
:103CF000C7D0A0682842F3D1304602B0BDE8F087B3
:103D0000D9E900014268B1F5827F22F0E002426009
:103D10000BD1D9F80810B1F5004F02D0B1F5806F82
:103D200003D1016821F040010160D9F82810B1F5F4
:103D3000005F07D1016821F400510160016841F47E
:103D400000510160012089F85D00002089F85C00C5
:103D50000326304602B0BDE8F0870000F0B581B020
:103D600015460E460446FFF737F8281A8719FFF75D
:103D700033F840F20801C2F200010968C1F3CB3107
:103D80007943009121688A68120622D50546701C85
:103D900015D000BFFFF720F8401BB8421CD2009896
:103DA00000990028A1F1010100912168896808BFEC
:103DB00007460806EED40CE08868000609D5886836
:103DC000000606D58868000644BF88685FEA006080
:103DD000F2D4002001B0F0BDD4E900014268B1F591
:103DE000827F22F0E00242600AD1A168B1F5004F63
:103DF00002D0B1F5806F03D1016821F0400101606C
:103E0000A16AB1F5005F07D1016821F4005101609A
:103E1000016841F400510160012084F85D00002038
:103E200084F85C00032001B0F0BD00007047000082
:103E3000FEF7D8BF4EF68850CEF20000016841F47C
:103E40007001016070470000FEE700009EB0FEF7C1
:103E5000D7FF6846002404303821CDE91944CDE964
:103E60001744FCF7B4FA0120149018904FF4A010F6
:103E70004FF4803102251D9014A8CDE91514CDE929
:103E80001B51FFF723FA28B1EFF3108072B600BF81
:103E9000FEE700BF0F20CDE90F054FF48060CDE9AC
:103EA00012040FA802211194FFF740F920B1EFF39B
:103EB000108072B6FEE700BF20200090102007900F
:103EC0006846FFF72BF828B1EFF3108072B600BFF9
:103ED000FEE700BFFFF7E6FDFFF74EFE40F270047D
:103EE000C2F200042046FEF76FFD20460021FCF7D9
:103EF000BBFD2046FCF754FD20460021FDF7D2FA19
:103F0000FAE700000000000030B540F2FF742DED2C
:103F1000048BF0EE608A18EE901A85B0B0EE408AFD
:103F20009FED2B9B05468DED008B34EA115147D058
:103F300053EC192B51EC180B00F0B6FA40D02A467E
:103F400051EC180B00F062FD41EC180B18EE900AD2
:103F50008DED008B34EA10501CD053EC192B51EC32
:103F6000180B00F0A1FA2BD10220FCF7B2FA00F0F6
:103F700043F810EE901A18EE900A8DED020B8DEDBD
:103F8000008B61F31E0003909DED020B05B0BDECAC
:103F9000048B30BD0220FCF79CFA00F01DF810EEF7
:103FA000901A18EE900A8DED020B8DED008B61F3E7
:103FB0001E0003909DED020B05B0BDEC048B30BDDF
:103FC00005B0B0EE480AF0EE680ABDEC048B30BDD7
:103FD00000000000000000009FED050B10B553EC41
:103FE000102B51EC100B00F0E1FA41EC100B10BD5E
:103FF00000000000000000709FED050B10B553ECB1
:10400000102B51EC100B00F0D1FA41EC100B10BD4D
:10401000000000000000001021F0004201F0004309
:10402000A2F16052B2F5801F28BFD2F17F6C0BD98C
:104030005FEA001C43EAC20242EB507018BF7047AF
:1040400028BF20F001007047B2F5801FBCBF1846A2
:1040500070474FEA410C1CF5001F02D2084600F0E1
:104060009EBC70B500F04CFB00000089FFF7F6BF66
:104070004FF00040A0F580007047000010B591EAB5
:10408000030F48BF83F0004300F19683841A71EB5D
:10409000030C05D2121943EB0C03001B61EB0C015E
:1040A0004FEA1154A4EB135CDFF81CE11EEA430F46
:1040B00018BF9EEA445F00F0748021EA045123EAAD
:1040C0000E0343F48013DCF1200E32D322FA0CFEEF
:1040D00010EB0E0023FA0CFE41EB0E01CCF1200E8A
:1040E00003FA0EFE10EB0E00CCF1200E51F1000190
:1040F000B1F5801F32D201EB045112FA0EF2BDE885
:10410000104058BF7047401C38BF5FEA420218BFDA
:104110007047002814BF20F0010041F100014FEA70
:10412000410313F5001F38BF7047A1F1C04100F0F3
:1041300035BB012A43EB0302ACF1200CDCF11F0E6E
:1041400032BF4FF0000E23FA0CF310EB030041EBEB
:104150000451B4EB115FD0D0A1EB045101F58011F3
:10416000490801EB04515FEA30000ED350F1000022
:1041700038BF12FA0EFE08D1BDE81040C9E7401C56
:1041800038BF5FEA4202CAD1C3E7BDE810404FEA38
:10419000410313F5001F38BF7047A1F1C04100F083
:1041A000FDBA9EEA445F08D011EA5E0FBDE81040F8
:1041B00004BF01F0004100207047BDE8104070B519
:1041C00000F09EFA64FBBE3E0000E0FF02494FF0A3
:1041D000000000F0E9BB00BF0000F87F491058BFA5
:1041E000C1F140415B1058BFC3F140438B42EFF334
:1041F000008070472DE9C04130B4DFF8A4C23CEA2A
:10420000111418BF3CEA131400F0ED801CEA1114DD
:1042100081EA030544EAD57418BF1CEA131500F0BF
:10422000C880A4EB050404F17F7404F500344FF05A
:10423000004545EAC12145EAC32341EA505143EA1A
:1042400052534FEAC0204FEAC222994208BF90421F
:1042500000F09D804FEA13650FF24416765D4FEA39
:10426000134506FB05F7C7F1807706FB07F74FEA12
:10427000D737A7FB03687642A7FB06CEC8F5803880
:1042800038BFA8F1010807FB08E6A6FB028C4FF037
:10429000000EE6FB03CEDCF1000CCEF1004E38BF81
:1042A000AEF1010EA6FB0C584FF00007E6FB0E879F
:1042B000A1FB08C6A0FB07CE16EB0E064FF00005CB
:1042C00045F10005E1FB076515F1E04E7EBFA4F561
:1042D00080345FEA46066D4116F1800745F100051E
:1042E0004FEA172747EA05674FEA15254FEA0666A2
:1042F000A6F1DE46B6F1805F20D9384605EBC471E1
:1043000024F0010C01EB0C11BCF1FE6F02D8F0BCE3
:10431000BDE8008124425CBF01F5801E9EEAC47F97
:1043200002D4F0BCBDE80081244200F13980A1F143
:10433000C041F0BCBDE8004100F030BA4FEAD020E7
:1043400040EA41504FEAD1214FEAD22242EA435299
:104350004FEAD323A7FB028607FB036605FB026631
:104360001EEA0E0F58BFA6EB0056B6EB00564FEAFA
:10437000520E4EEAC37E18EB0E0E56EB530EBCD512
:1043800018EB02085E417F1C55F10005B5E74FF4BC
:1043900080154FF000074FF000064FF00008ACE723
:1043A00001F1C04101F000414FF00000F0BCBDE858
:1043B00000810CEA131511EA0C1F00D00CE013EA7F
:1043C0000C1F00F026804FF0000081EA030101F08D
:1043D0000041F0BCBDE80081F0BCBDE8004181EACD
:1043E000030100F0DBB9F0BCBDE8004170B500F09E
:1043F00087F900BF097EFC3E00F007B84FF00000CF
:1044000081EA030101F00041704781EA030100F0F5
:10441000C5B9F0BCBDE8004122494FF0000070472B
:10442000FFFDFBF9F7F5F4F2F0EEEDEBE9E8E6E479
:10443000E3E1E0DEDDDBDAD8D7D5D4D3D1D0CFCD00
:10444000CCCBCAC8C7C6C5C4C2C1C0BFBEBDBCBB39
:10445000BAB9B8B7B6B5B4B3B2B1B0AFAEADACAB34
:10446000AAA9A8A8A7A6A5A4A3A3A2A1A09F9F9E0E
:104470009D9C9C9B9A9999989797969595949393C0
:10448000929191908F8F8E8E8D8C8C8B8B8A898957
:1044900088888787868585848483838282818180DA
:1044A0000000FF070000F87F51EA030C17D41CF549
:1044B000801F58BFBCF5801F00F10680994218BFCD
:1044C000704708BF9042704707D711F5801F58BF4B
:1044D00013F5801F19D499427047894270471CF523
:1044E000801F08D5BCF5801FF7D58B4218BF7047D9
:1044F00008BF824270474FF4001C1CEB410F38BFCD
:104500001CEB430F01D28B42704770B500F0F8F8F6
:10451000922449004FF000514FF08053FFF75EBEE8
:104520004FEA41034FEA5353A3F58063D3F11E03CF
:10453000C8BFD3F1210C0CDD4FF0004242EAC1228A
:1045400042EA505232FA03FC8CEAE17CACEBE170B7
:104550007047102BC4BF0020704703F5787CBCF176
:10456000FF3F04D06FF0004282EA2100704770B52F
:1045700000F0C6F84992248000207047F2E710F05E
:10458000004248BF4042B0FA80F310FA03F10AD06B
:10459000C3F11D0303F5806302EB03524FEA415060
:1045A00002EBD12170474FF00000704770B5DFF883
:1045B00048C11CEA111E1EBF1CEA13159EEA0C0F0F
:1045C00095EA0C0F00F06F8081EA03044EEAD47E76
:1045D000AE4421EA4C1123EA4C1341F4801143F418
:1045E0008013AEF17F7EA1FB024CA0FB0365361960
:1045F00055EB0C05A1FB034C4CF10003A0FB021C86
:1046000016EB0C06654153F10003094218BF46F052
:10461000010613F4007F0BD14FEA03314FEA053056
:1046200041EA155140EA165034036FF003020AE0E4
:104630004FEAC3214FEAC52041EA555140EA56509E
:10464000F4026FF0020202EB2E4201EB025585EA02
:10465000CE710AD05FEA440C18BF24F0004450F138
:10466000000041F1000120EAD47040F2FE7C624576
:1046700000D270BDA84214BF4FF080444FF04044B8
:10468000002E08BF0024BEF1806FA8BFA1F1C04179
:10469000BDE8704080F2828001F1C04101F000412C
:1046A0004FF0000070470CEA13159EEA0C0F18BF7C
:1046B00095EA0C0F06D081EA030E4FF000000EF0D1
:1046C000004170BD00F01CF88900013E00F007B801
:1046D00000F009B84FEA430C5FEA5C5C08D081EA5D
:1046E000030100F05BB84FEA410C5FEA5C5CF6D175
:1046F00002494FF0000070470000FF070000F87FFC
:104700000EF1020E2EF0030E5EF8046B364205D455
:10471000012A43EB030515F5001F12D8012841EBD0
:10472000010C1CF5001F0CD80ED14FEAD17C0CEB0C
:104730004C0C0CF1020C15F5001F08BF4CEBD37CA0
:1047400004E04FF0080C01E04FEAD37C0CEB4C0581
:1047500026FA05F606F00706B6F1040C06D20EEBB3
:10476000860CBDE870404CF0010C6047DFE80CF0AF
:10477000090B02024FF00041A1F500214FF00000AB
:1047800070BD19461046012851EB010418BFD4F53D
:10479000001484BF002001F0004170BD0808A0F59E
:1047A00000114FEA3101704710B591EA030F48BF7D
:1047B00083F000433FF56AAC841A71EB030C07D217
:1047C0008CF0004C121943EB0C03001B61EB0C0145
:1047D0004FEA1154A4EB135CDFF8A4E11EEA430F87
:1047E00018BF9EEA445F00F0B48021EA045123EA36
:1047F0006E035242C3EB6E0338BF5B1EDCF1200E2A
:1048000025D322FA0CFE10EB0E0043FA0CFE41EB0E
:104810000E01CCF1200E03FA0EFE10EB0E00CCF1CF
:10482000200E51F1000129D401EB045112FA0EF2CD
:10483000BDE8104058BF7047401C1CBFB2F1004F8C
:10484000704700280CBF491C20F00100704712EB94
:10485000020E43EB030218BF4FF0010E4EEA420274
:10486000ACF1200CDCF11E0E56D943FA0CFE10EB15
:104870000E00CCF11E0E51F1FF31D5D50EF1010E17
:1048800012FA0EFE404141EB010101EB445C5FEA8C
:104890005C5C10D901EB045110EBDE7038BFBEF147
:1048A000004FBDE8104018BF704700280CBF491CDE
:1048B00020F00100704734D24FEAD42C24F4006475
:1048C00011F500111BD0B1FA81F20B3AA41AA41E03
:1048D000D2F12003914030FA03F31943904001EBE9
:1048E000CC7101EB0451002CBDE81040A8BF70470B
:1048F00001F1C04101F000414FF000007047B0FAF3
:1049000080F310FA03F102D1BDE810407047E41AB9
:10491000173C4805C90AE2E701EB0451BDE8104025
:10492000704749104FEA300001EB0451BDE81040D8
:1049300002E04FF0000170474A0008BF0042F8D083
:10494000B2F5001F28BF704701F000414FF0000092
:1049500070479EEA445F07D011EA5E0FBDE8104041
:1049600004BF002100207047BDE8104070B5FFF77C
:10497000C7FE00BF40DFF63E104683F0004170479F
:104980000000E0FFF1EE100A4FF6FF71C0F2C031F7
:1049900020EA010040F04070E1EE100A7047FF216C
:1049A00041EAD050C00570470CF00F03092B08BF37
:1049B000082000F059800A2B0BD0082B18BF704735
:1049C00008BF1CF0400F0AD04FF000004FF000016C
:1049D00070471CF0400F18BF4FF0004070471CF0AC
:1049E000100F08D000F07F4220F0704342EAD3015C
:1049F0004FEA4370704700F0604021F07F4242EA86
:104A0000000201F07F4040EA727070474FF0FF0CE7
:104A10004CF4E06C1CEA11531CBF9CEA030C944557
:104A2000C2BFDA4201EB02517047002B0DD0BCF13E
:104A3000000F0FD001F00041002AA4BF41F0E04177
:104A400041F07F614FF00000704701F000414FF0EE
:104A50000000704750EA01334FF09B0C18BF4CF038
:104A6000806C7FF4B3AB70471CF4801F11D01CF432
:104A7000E02F03D06FEACC31490070474FF040502F
:104A8000EFF3008222F0704242EA000282F30088D3
:104A900070474FF000007047000000000000000069
:104AA00001020304060708090203040506070809B2
:104AB0000A0B0C0D0E0F1010010203040506070867
:104AC000090A0B0C0D0E0F10E84A00080000002028
:104AD00010000000C4010008F84A0008100000207F
:104AE00090670000E00100080100000010000000D5
:084AF00000127A000000000032
:040000050800018965
:00000001FF
